{
  "_format": "hh-sol-artifact-1",
  "contractName": "CertificateRegistry",
  "sourceName": "contracts/CertificateRegistry.sol",
  "abi": [
    {
      "inputs": [],
      "stateMutability": "nonpayable",
      "type": "constructor"
    },
    {
      "anonymous": false,
      "inputs": [
        {
          "indexed": true,
          "internalType": "uint256",
          "name": "certificateId",
          "type": "uint256"
        },
        {
          "indexed": false,
          "internalType": "string",
          "name": "studentName",
          "type": "string"
        },
        {
          "indexed": false,
          "internalType": "string",
          "name": "courseName",
          "type": "string"
        },
        {
          "indexed": false,
          "internalType": "string",
          "name": "ipfsHash",
          "type": "string"
        },
        {
          "indexed": false,
          "internalType": "bytes32",
          "name": "certificateHash",
          "type": "bytes32"
        },
        {
          "indexed": true,
          "internalType": "address",
          "name": "issuer",
          "type": "address"
        }
      ],
      "name": "CertificateIssued",
      "type": "event"
    },
    {
      "anonymous": false,
      "inputs": [
        {
          "indexed": true,
          "internalType": "uint256",
          "name": "certificateId",
          "type": "uint256"
        },
        {
          "indexed": true,
          "internalType": "address",
          "name": "revokedBy",
          "type": "address"
        }
      ],
      "name": "CertificateRevoked",
      "type": "event"
    },
    {
      "anonymous": false,
      "inputs": [
        {
          "indexed": true,
          "internalType": "address",
          "name": "issuer",
          "type": "address"
        }
      ],
      "name": "IssuerAuthorized",
      "type": "event"
    },
    {
      "anonymous": false,
      "inputs": [
        {
          "indexed": true,
          "internalType": "address",
          "name": "issuer",
          "type": "address"
        }
      ],
      "name": "IssuerRevoked",
      "type": "event"
    },
    {
      "inputs": [],
      "name": "admin",
      "outputs": [
        {
          "internalType": "address",
          "name": "",
          "type": "address"
        }
      ],
      "stateMutability": "view",
      "type": "function"
    },
    {
      "inputs": [
        {
          "internalType": "address",
          "name": "_issuer",
          "type": "address"
        }
      ],
      "name": "authorizeIssuer",
      "outputs": [],
      "stateMutability": "nonpayable",
      "type": "function"
    },
    {
      "inputs": [
        {
          "internalType": "address",
          "name": "",
          "type": "address"
        }
      ],
      "name": "authorizedIssuers",
      "outputs": [
        {
          "internalType": "bool",
          "name": "",
          "type": "bool"
        }
      ],
      "stateMutability": "view",
      "type": "function"
    },
    {
      "inputs": [],
      "name": "certificateCount",
      "outputs": [
        {
          "internalType": "uint256",
          "name": "",
          "type": "uint256"
        }
      ],
      "stateMutability": "view",
      "type": "function"
    },
    {
      "inputs": [
        {
          "internalType": "bytes32",
          "name": "",
          "type": "bytes32"
        }
      ],
      "name": "certificateHashExists",
      "outputs": [
        {
          "internalType": "bool",
          "name": "",
          "type": "bool"
        }
      ],
      "stateMutability": "view",
      "type": "function"
    },
    {
      "inputs": [
        {
          "internalType": "uint256",
          "name": "",
          "type": "uint256"
        }
      ],
      "name": "certificates",
      "outputs": [
        {
          "internalType": "string",
          "name": "studentName",
          "type": "string"
        },
        {
          "internalType": "string",
          "name": "courseName",
          "type": "string"
        },
        {
          "internalType": "string",
          "name": "ipfsHash",
          "type": "string"
        },
        {
          "internalType": "bytes32",
          "name": "certificateHash",
          "type": "bytes32"
        },
        {
          "internalType": "uint64",
          "name": "issuedDate",
          "type": "uint64"
        },
        {
          "internalType": "address",
          "name": "issuer",
          "type": "address"
        },
        {
          "internalType": "bool",
          "name": "isRevoked",
          "type": "bool"
        }
      ],
      "stateMutability": "view",
      "type": "function"
    },
    {
      "inputs": [
        {
          "internalType": "uint256",
          "name": "_id",
          "type": "uint256"
        }
      ],
      "name": "getCertificateDetails",
      "outputs": [
        {
          "internalType": "string",
          "name": "studentName",
          "type": "string"
        },
        {
          "internalType": "string",
          "name": "courseName",
          "type": "string"
        },
        {
          "internalType": "string",
          "name": "ipfsHash",
          "type": "string"
        },
        {
          "internalType": "bytes32",
          "name": "certificateHash",
          "type": "bytes32"
        },
        {
          "internalType": "uint256",
          "name": "issuedDate",
          "type": "uint256"
        },
        {
          "internalType": "address",
          "name": "issuer",
          "type": "address"
        },
        {
          "internalType": "bool",
          "name": "isRevoked",
          "type": "bool"
        }
      ],
      "stateMutability": "view",
      "type": "function"
    },
    {
      "inputs": [
        {
          "internalType": "address",
          "name": "_address",
          "type": "address"
        }
      ],
      "name": "isAuthorizedIssuer",
      "outputs": [
        {
          "internalType": "bool",
          "name": "",
          "type": "bool"
        }
      ],
      "stateMutability": "view",
      "type": "function"
    },
    {
      "inputs": [
        {
          "internalType": "string",
          "name": "_studentName",
          "type": "string"
        },
        {
          "internalType": "string",
          "name": "_courseName",
          "type": "string"
        },
        {
          "internalType": "string",
          "name": "_ipfsHash",
          "type": "string"
        },
        {
          "internalType": "bytes32",
          "name": "_certificateHash",
          "type": "bytes32"
        }
      ],
      "name": "issueCertificate",
      "outputs": [
        {
          "internalType": "uint256",
          "name": "",
          "type": "uint256"
        }
      ],
      "stateMutability": "nonpayable",
      "type": "function"
    },
    {
      "inputs": [
        {
          "internalType": "uint256",
          "name": "_id",
          "type": "uint256"
        }
      ],
      "name": "revokeCertificate",
      "outputs": [],
      "stateMutability": "nonpayable",
      "type": "function"
    },
    {
      "inputs": [
        {
          "internalType": "address",
          "name": "_issuer",
          "type": "address"
        }
      ],
      "name": "revokeIssuer",
      "outputs": [],
      "stateMutability": "nonpayable",
      "type": "function"
    },
    {
      "inputs": [
        {
          "internalType": "uint256",
          "name": "_id",
          "type": "uint256"
        }
      ],
      "name": "verifyCertificate",
      "outputs": [
        {
          "components": [
            {
              "internalType": "string",
              "name": "studentName",
              "type": "string"
            },
            {
              "internalType": "string",
              "name": "courseName",
              "type": "string"
            },
            {
              "internalType": "string",
              "name": "ipfsHash",
              "type": "string"
            },
            {
              "internalType": "bytes32",
              "name": "certificateHash",
              "type": "bytes32"
            },
            {
              "internalType": "uint64",
              "name": "issuedDate",
              "type": "uint64"
            },
            {
              "internalType": "address",
              "name": "issuer",
              "type": "address"
            },
            {
              "internalType": "bool",
              "name": "isRevoked",
              "type": "bool"
            }
          ],
          "internalType": "struct CertificateRegistry.Certificate",
          "name": "",
          "type": "tuple"
        }
      ],
      "stateMutability": "view",
      "type": "function"
    },
    {
      "inputs": [
        {
          "internalType": "bytes32",
          "name": "_hash",
          "type": "bytes32"
        }
      ],
      "name": "verifyCertificateByHash",
      "outputs": [
        {
          "internalType": "bool",
          "name": "exists",
          "type": "bool"
        },
        {
          "internalType": "bool",
          "name": "isValid",
          "type": "bool"
        }
      ],
      "stateMutability": "view",
      "type": "function"
    }
  ],
  "bytecode": "0x608060405234801561001057600080fd5b50336000806101000a81548173ffffffffffffffffffffffffffffffffffffffff021916908373ffffffffffffffffffffffffffffffffffffffff16021790555060018060003373ffffffffffffffffffffffffffffffffffffffff1673ffffffffffffffffffffffffffffffffffffffff16815260200190815260200160002060006101000a81548160ff021916908315150217905550612550806100b76000396000f3fe608060405234801561001057600080fd5b50600436106100ce5760003560e01c806352d7b89c1161008c578063a901fe5e11610066578063a901fe5e1461023b578063dbcfd1e214610271578063f731fa0f146102a2578063f851a440146102d2576100ce565b806352d7b89c146101b75780635f2a4cda146101d5578063663b3e2214610205576100ce565b8062629679146100d357806306f5497e146100ef5780631692a9421461010b57806324a9ecc81461013b57806331ba19661461016b578063436693d51461019b575b600080fd5b6100ed60048036038101906100e8919061175e565b6102f0565b005b610109600480360381019061010491906117c1565b610536565b005b610125600480360381019061012091906117c1565b610743565b604051610132919061198e565b60405180910390f35b610155600480360381019061015091906119dc565b610a24565b6040516101629190611a18565b60405180910390f35b6101856004803603810190610180919061175e565b610a44565b6040516101929190611a18565b60405180910390f35b6101b560048036038101906101b0919061175e565b610a9a565b005b6101bf610c52565b6040516101cc9190611a42565b60405180910390f35b6101ef60048036038101906101ea9190611ac2565b610c58565b6040516101fc9190611a42565b60405180910390f35b61021f600480360381019061021a91906117c1565b611065565b6040516102329796959493929190611c02565b60405180910390f35b610255600480360381019061025091906117c1565b611280565b6040516102689796959493929190611c86565b60405180910390f35b61028b600480360381019061028691906119dc565b6115a8565b604051610299929190611d0a565b60405180910390f35b6102bc60048036038101906102b7919061175e565b611650565b6040516102c99190611a18565b60405180910390f35b6102da611670565b6040516102e79190611d33565b60405180910390f35b60008054906101000a900473ffffffffffffffffffffffffffffffffffffffff1673ffffffffffffffffffffffffffffffffffffffff163373ffffffffffffffffffffffffffffffffffffffff161461037e576040517f08c379a000000000000000000000000000000000000000000000000000000000815260040161037590611dc0565b60405180910390fd5b600160008273ffffffffffffffffffffffffffffffffffffffff1673ffffffffffffffffffffffffffffffffffffffff16815260200190815260200160002060009054906101000a900460ff1661040a576040517f08c379a000000000000000000000000000000000000000000000000000000000815260040161040190611e2c565b60405180910390fd5b60008054906101000a900473ffffffffffffffffffffffffffffffffffffffff1673ffffffffffffffffffffffffffffffffffffffff168173ffffffffffffffffffffffffffffffffffffffff1603610498576040517f08c379a000000000000000000000000000000000000000000000000000000000815260040161048f90611e98565b60405180910390fd5b6000600160008373ffffffffffffffffffffffffffffffffffffffff1673ffffffffffffffffffffffffffffffffffffffff16815260200190815260200160002060006101000a81548160ff0219169083151502179055508073ffffffffffffffffffffffffffffffffffffffff167f95a4c2ae425bb769549aa1a911911ff57c17ae811ae8c8962d0b9746fcb1539760405160405180910390a250565b60008054906101000a900473ffffffffffffffffffffffffffffffffffffffff1673ffffffffffffffffffffffffffffffffffffffff163373ffffffffffffffffffffffffffffffffffffffff1614806105d95750600160003373ffffffffffffffffffffffffffffffffffffffff1673ffffffffffffffffffffffffffffffffffffffff16815260200190815260200160002060009054906101000a900460ff165b610618576040517f08c379a000000000000000000000000000000000000000000000000000000000815260040161060f90611f2a565b60405180910390fd5b60008111801561062a57506004548111155b610669576040517f08c379a000000000000000000000000000000000000000000000000000000000815260040161066090611f96565b60405180910390fd5b60026000828152602001908152602001600020600401601c9054906101000a900460ff16156106cd576040517f08c379a00000000000000000000000000000000000000000000000000000000081526004016106c490612002565b60405180910390fd5b600160026000838152602001908152602001600020600401601c6101000a81548160ff0219169083151502179055503373ffffffffffffffffffffffffffffffffffffffff16817f325c62e70cfaa61cf0709d9607ea9d8451b235297c4b47c65ff6a6449c9faca460405160405180910390a350565b61074b611694565b60008211801561075d57506004548211155b61079c576040517f08c379a000000000000000000000000000000000000000000000000000000000815260040161079390611f96565b60405180910390fd5b600260008381526020019081526020016000206040518060e00160405290816000820180546107ca90612051565b80601f01602080910402602001604051908101604052809291908181526020018280546107f690612051565b80156108435780601f1061081857610100808354040283529160200191610843565b820191906000526020600020905b81548152906001019060200180831161082657829003601f168201915b5050505050815260200160018201805461085c90612051565b80601f016020809104026020016040519081016040528092919081815260200182805461088890612051565b80156108d55780601f106108aa576101008083540402835291602001916108d5565b820191906000526020600020905b8154815290600101906020018083116108b857829003601f168201915b505050505081526020016002820180546108ee90612051565b80601f016020809104026020016040519081016040528092919081815260200182805461091a90612051565b80156109675780601f1061093c57610100808354040283529160200191610967565b820191906000526020600020905b81548152906001019060200180831161094a57829003601f168201915b50505050508152602001600382015481526020016004820160009054906101000a900467ffffffffffffffff1667ffffffffffffffff1667ffffffffffffffff1681526020016004820160089054906101000a900473ffffffffffffffffffffffffffffffffffffffff1673ffffffffffffffffffffffffffffffffffffffff1673ffffffffffffffffffffffffffffffffffffffff16815260200160048201601c9054906101000a900460ff1615151515815250509050919050565b60036020528060005260406000206000915054906101000a900460ff1681565b6000600160008373ffffffffffffffffffffffffffffffffffffffff1673ffffffffffffffffffffffffffffffffffffffff16815260200190815260200160002060009054906101000a900460ff169050919050565b60008054906101000a900473ffffffffffffffffffffffffffffffffffffffff1673ffffffffffffffffffffffffffffffffffffffff163373ffffffffffffffffffffffffffffffffffffffff1614610b28576040517f08c379a0000000000000000000000000000000000000000000000000000000008152600401610b1f90611dc0565b60405180910390fd5b600160008273ffffffffffffffffffffffffffffffffffffffff1673ffffffffffffffffffffffffffffffffffffffff16815260200190815260200160002060009054906101000a900460ff1615610bb5576040517f08c379a0000000000000000000000000000000000000000000000000000000008152600401610bac906120ce565b60405180910390fd5b60018060008373ffffffffffffffffffffffffffffffffffffffff1673ffffffffffffffffffffffffffffffffffffffff16815260200190815260200160002060006101000a81548160ff0219169083151502179055508073ffffffffffffffffffffffffffffffffffffffff167f8b4006ca14f23d4e7aa8d120d1ab7c3761d650eefac1a5d6732dbea94b54ea2460405160405180910390a250565b60045481565b60008060009054906101000a900473ffffffffffffffffffffffffffffffffffffffff1673ffffffffffffffffffffffffffffffffffffffff163373ffffffffffffffffffffffffffffffffffffffff161480610cfe5750600160003373ffffffffffffffffffffffffffffffffffffffff1673ffffffffffffffffffffffffffffffffffffffff16815260200190815260200160002060009054906101000a900460ff165b610d3d576040517f08c379a0000000000000000000000000000000000000000000000000000000008152600401610d3490611f2a565b60405180910390fd5b6003600083815260200190815260200160002060009054906101000a900460ff1615610d9e576040517f08c379a0000000000000000000000000000000000000000000000000000000008152600401610d959061213a565b60405180910390fd5b6004600081548092919060010191905055506040518060e0016040528089898080601f016020809104026020016040519081016040528093929190818152602001838380828437600081840152601f19601f82011690508083019250505050505050815260200187878080601f016020809104026020016040519081016040528093929190818152602001838380828437600081840152601f19601f82011690508083019250505050505050815260200185858080601f016020809104026020016040519081016040528093929190818152602001838380828437600081840152601f19601f8201169050808301925050505050505081526020018381526020014267ffffffffffffffff1681526020013373ffffffffffffffffffffffffffffffffffffffff168152602001600015158152506002600060045481526020019081526020016000206000820151816000019081610efc9190612335565b506020820151816001019081610f129190612335565b506040820151816002019081610f289190612335565b506060820151816003015560808201518160040160006101000a81548167ffffffffffffffff021916908367ffffffffffffffff16021790555060a08201518160040160086101000a81548173ffffffffffffffffffffffffffffffffffffffff021916908373ffffffffffffffffffffffffffffffffffffffff16021790555060c082015181600401601c6101000a81548160ff02191690831515021790555090505060016003600084815260200190815260200160002060006101000a81548160ff0219169083151502179055503373ffffffffffffffffffffffffffffffffffffffff166004547f593df547b9286cca45ac1d9ede28442e155db862d6a8a80b19f9f0da741d5f928a8a8a8a8a8a8a60405161104d9796959493929190612443565b60405180910390a36004549050979650505050505050565b600260205280600052604060002060009150905080600001805461108890612051565b80601f01602080910402602001604051908101604052809291908181526020018280546110b490612051565b80156111015780601f106110d657610100808354040283529160200191611101565b820191906000526020600020905b8154815290600101906020018083116110e457829003601f168201915b50505050509080600101805461111690612051565b80601f016020809104026020016040519081016040528092919081815260200182805461114290612051565b801561118f5780601f106111645761010080835404028352916020019161118f565b820191906000526020600020905b81548152906001019060200180831161117257829003601f168201915b5050505050908060020180546111a490612051565b80601f01602080910402602001604051908101604052809291908181526020018280546111d090612051565b801561121d5780601f106111f25761010080835404028352916020019161121d565b820191906000526020600020905b81548152906001019060200180831161120057829003601f168201915b5050505050908060030154908060040160009054906101000a900467ffffffffffffffff16908060040160089054906101000a900473ffffffffffffffffffffffffffffffffffffffff169080600401601c9054906101000a900460ff16905087565b606080606060008060008060008811801561129d57506004548811155b6112dc576040517f08c379a00000000000000000000000000000000000000000000000000000000081526004016112d390611f96565b60405180910390fd5b6000600260008a81526020019081526020016000206040518060e001604052908160008201805461130c90612051565b80601f016020809104026020016040519081016040528092919081815260200182805461133890612051565b80156113855780601f1061135a57610100808354040283529160200191611385565b820191906000526020600020905b81548152906001019060200180831161136857829003601f168201915b5050505050815260200160018201805461139e90612051565b80601f01602080910402602001604051908101604052809291908181526020018280546113ca90612051565b80156114175780601f106113ec57610100808354040283529160200191611417565b820191906000526020600020905b8154815290600101906020018083116113fa57829003601f168201915b5050505050815260200160028201805461143090612051565b80601f016020809104026020016040519081016040528092919081815260200182805461145c90612051565b80156114a95780601f1061147e576101008083540402835291602001916114a9565b820191906000526020600020905b81548152906001019060200180831161148c57829003601f168201915b50505050508152602001600382015481526020016004820160009054906101000a900467ffffffffffffffff1667ffffffffffffffff1667ffffffffffffffff1681526020016004820160089054906101000a900473ffffffffffffffffffffffffffffffffffffffff1673ffffffffffffffffffffffffffffffffffffffff1673ffffffffffffffffffffffffffffffffffffffff16815260200160048201601c9054906101000a900460ff16151515158152505090508060000151816020015182604001518360600151846080015167ffffffffffffffff168560a001518660c00151975097509750975097509750975050919395979092949650565b6000806003600084815260200190815260200160002060009054906101000a900460ff1691508115611643576000600190505b6004548111611641578360026000838152602001908152602001600020600301540361162e5760026000828152602001908152602001600020600401601c9054906101000a900460ff161591505061164b565b8080611639906124d2565b9150506115db565b505b600080915091505b915091565b60016020528060005260406000206000915054906101000a900460ff1681565b60008054906101000a900473ffffffffffffffffffffffffffffffffffffffff1681565b6040518060e0016040528060608152602001606081526020016060815260200160008019168152602001600067ffffffffffffffff168152602001600073ffffffffffffffffffffffffffffffffffffffff1681526020016000151581525090565b600080fd5b600080fd5b600073ffffffffffffffffffffffffffffffffffffffff82169050919050565b600061172b82611700565b9050919050565b61173b81611720565b811461174657600080fd5b50565b60008135905061175881611732565b92915050565b600060208284031215611774576117736116f6565b5b600061178284828501611749565b91505092915050565b6000819050919050565b61179e8161178b565b81146117a957600080fd5b50565b6000813590506117bb81611795565b92915050565b6000602082840312156117d7576117d66116f6565b5b60006117e5848285016117ac565b91505092915050565b600081519050919050565b600082825260208201905092915050565b60005b8381101561182857808201518184015260208101905061180d565b60008484015250505050565b6000601f19601f8301169050919050565b6000611850826117ee565b61185a81856117f9565b935061186a81856020860161180a565b61187381611834565b840191505092915050565b6000819050919050565b6118918161187e565b82525050565b600067ffffffffffffffff82169050919050565b6118b481611897565b82525050565b6118c381611720565b82525050565b60008115159050919050565b6118de816118c9565b82525050565b600060e08301600083015184820360008601526119018282611845565b9150506020830151848203602086015261191b8282611845565b915050604083015184820360408601526119358282611845565b915050606083015161194a6060860182611888565b50608083015161195d60808601826118ab565b5060a083015161197060a08601826118ba565b5060c083015161198360c08601826118d5565b508091505092915050565b600060208201905081810360008301526119a881846118e4565b905092915050565b6119b98161187e565b81146119c457600080fd5b50565b6000813590506119d6816119b0565b92915050565b6000602082840312156119f2576119f16116f6565b5b6000611a00848285016119c7565b91505092915050565b611a12816118c9565b82525050565b6000602082019050611a2d6000830184611a09565b92915050565b611a3c8161178b565b82525050565b6000602082019050611a576000830184611a33565b92915050565b600080fd5b600080fd5b600080fd5b60008083601f840112611a8257611a81611a5d565b5b8235905067ffffffffffffffff811115611a9f57611a9e611a62565b5b602083019150836001820283011115611abb57611aba611a67565b5b9250929050565b60008060008060008060006080888a031215611ae157611ae06116f6565b5b600088013567ffffffffffffffff811115611aff57611afe6116fb565b5b611b0b8a828b01611a6c565b9750975050602088013567ffffffffffffffff811115611b2e57611b2d6116fb565b5b611b3a8a828b01611a6c565b9550955050604088013567ffffffffffffffff811115611b5d57611b5c6116fb565b5b611b698a828b01611a6c565b93509350506060611b7c8a828b016119c7565b91505092959891949750929550565b600082825260208201905092915050565b6000611ba7826117ee565b611bb18185611b8b565b9350611bc181856020860161180a565b611bca81611834565b840191505092915050565b611bde8161187e565b82525050565b611bed81611897565b82525050565b611bfc81611720565b82525050565b600060e0820190508181036000830152611c1c818a611b9c565b90508181036020830152611c308189611b9c565b90508181036040830152611c448188611b9c565b9050611c536060830187611bd5565b611c606080830186611be4565b611c6d60a0830185611bf3565b611c7a60c0830184611a09565b98975050505050505050565b600060e0820190508181036000830152611ca0818a611b9c565b90508181036020830152611cb48189611b9c565b90508181036040830152611cc88188611b9c565b9050611cd76060830187611bd5565b611ce46080830186611a33565b611cf160a0830185611bf3565b611cfe60c0830184611a09565b98975050505050505050565b6000604082019050611d1f6000830185611a09565b611d2c6020830184611a09565b9392505050565b6000602082019050611d486000830184611bf3565b92915050565b7f4f6e6c792061646d696e2063616e20706572666f726d2074686973206163746960008201527f6f6e000000000000000000000000000000000000000000000000000000000000602082015250565b6000611daa602283611b8b565b9150611db582611d4e565b604082019050919050565b60006020820190508181036000830152611dd981611d9d565b9050919050565b7f4e6f7420617574686f72697a6564000000000000000000000000000000000000600082015250565b6000611e16600e83611b8b565b9150611e2182611de0565b602082019050919050565b60006020820190508181036000830152611e4581611e09565b9050919050565b7f43616e6e6f74207265766f6b652061646d696e00000000000000000000000000600082015250565b6000611e82601383611b8b565b9150611e8d82611e4c565b602082019050919050565b60006020820190508181036000830152611eb181611e75565b9050919050565b7f4e6f7420617574686f72697a656420746f20697373756520636572746966696360008201527f6174657300000000000000000000000000000000000000000000000000000000602082015250565b6000611f14602483611b8b565b9150611f1f82611eb8565b604082019050919050565b60006020820190508181036000830152611f4381611f07565b9050919050565b7f496e76616c696420636572746966696361746520494400000000000000000000600082015250565b6000611f80601683611b8b565b9150611f8b82611f4a565b602082019050919050565b60006020820190508181036000830152611faf81611f73565b9050919050565b7f436572746966696361746520616c7265616479207265766f6b65640000000000600082015250565b6000611fec601b83611b8b565b9150611ff782611fb6565b602082019050919050565b6000602082019050818103600083015261201b81611fdf565b9050919050565b7f4e487b7100000000000000000000000000000000000000000000000000000000600052602260045260246000fd5b6000600282049050600182168061206957607f821691505b60208210810361207c5761207b612022565b5b50919050565b7f416c726561647920617574686f72697a65640000000000000000000000000000600082015250565b60006120b8601283611b8b565b91506120c382612082565b602082019050919050565b600060208201905081810360008301526120e7816120ab565b9050919050565b7f4365727469666963617465206861736820616c72656164792065786973747300600082015250565b6000612124601f83611b8b565b915061212f826120ee565b602082019050919050565b6000602082019050818103600083015261215381612117565b9050919050565b7f4e487b7100000000000000000000000000000000000000000000000000000000600052604160045260246000fd5b60008190508160005260206000209050919050565b60006020601f8301049050919050565b600082821b905092915050565b6000600883026121eb7fffffffffffffffffffffffffffffffffffffffffffffffffffffffffffffffff826121ae565b6121f586836121ae565b95508019841693508086168417925050509392505050565b6000819050919050565b600061223261222d6122288461178b565b61220d565b61178b565b9050919050565b6000819050919050565b61224c83612217565b61226061225882612239565b8484546121bb565b825550505050565b600090565b612275612268565b612280818484612243565b505050565b5b818110156122a45761229960008261226d565b600181019050612286565b5050565b601f8211156122e9576122ba81612189565b6122c38461219e565b810160208510156122d2578190505b6122e66122de8561219e565b830182612285565b50505b505050565b600082821c905092915050565b600061230c600019846008026122ee565b1980831691505092915050565b600061232583836122fb565b9150826002028217905092915050565b61233e826117ee565b67ffffffffffffffff8111156123575761235661215a565b5b6123618254612051565b61236c8282856122a8565b600060209050601f83116001811461239f576000841561238d578287015190505b6123978582612319565b8655506123ff565b601f1984166123ad86612189565b60005b828110156123d5578489015182556001820191506020850194506020810190506123b0565b868310156123f257848901516123ee601f8916826122fb565b8355505b6001600288020188555050505b505050505050565b82818337600083830152505050565b60006124228385611b8b565b935061242f838584612407565b61243883611834565b840190509392505050565b6000608082019050818103600083015261245e81898b612416565b90508181036020830152612473818789612416565b90508181036040830152612488818587612416565b90506124976060830184611bd5565b98975050505050505050565b7f4e487b7100000000000000000000000000000000000000000000000000000000600052601160045260246000fd5b60006124dd8261178b565b91507fffffffffffffffffffffffffffffffffffffffffffffffffffffffffffffffff820361250f5761250e6124a3565b5b60018201905091905056fea2646970667358221220a40c04fe828be442cfdb998150d249b4399ec6e654bc76ebae9d3938ac2b12ad64736f6c63430008140033",
  "linkReferences": {},
  "deployedLinkReferences": {}
}